{
  "contractName": "BurnableTimelock",
  "abi": [
    {
      "constant": false,
      "inputs": [],
      "name": "unpause",
      "outputs": [],
      "payable": false,
      "stateMutability": "nonpayable",
      "type": "function"
    },
    {
      "constant": true,
      "inputs": [],
      "name": "paused",
      "outputs": [
        {
          "name": "",
          "type": "bool"
        }
      ],
      "payable": false,
      "stateMutability": "view",
      "type": "function"
    },
    {
      "constant": false,
      "inputs": [],
      "name": "renounceOwnership",
      "outputs": [],
      "payable": false,
      "stateMutability": "nonpayable",
      "type": "function"
    },
    {
      "constant": false,
      "inputs": [],
      "name": "pause",
      "outputs": [],
      "payable": false,
      "stateMutability": "nonpayable",
      "type": "function"
    },
    {
      "constant": true,
      "inputs": [],
      "name": "owner",
      "outputs": [
        {
          "name": "",
          "type": "address"
        }
      ],
      "payable": false,
      "stateMutability": "view",
      "type": "function"
    },
    {
      "constant": true,
      "inputs": [],
      "name": "isOwner",
      "outputs": [
        {
          "name": "",
          "type": "bool"
        }
      ],
      "payable": false,
      "stateMutability": "view",
      "type": "function"
    },
    {
      "constant": false,
      "inputs": [
        {
          "name": "newOwner",
          "type": "address"
        }
      ],
      "name": "transferOwnership",
      "outputs": [],
      "payable": false,
      "stateMutability": "nonpayable",
      "type": "function"
    },
    {
      "inputs": [
        {
          "name": "token",
          "type": "address"
        },
        {
          "name": "beneficiary",
          "type": "address"
        },
        {
          "name": "releaseTime",
          "type": "uint256"
        },
        {
          "name": "releaseDelay",
          "type": "uint256"
        }
      ],
      "payable": false,
      "stateMutability": "nonpayable",
      "type": "constructor"
    },
    {
      "anonymous": false,
      "inputs": [
        {
          "indexed": true,
          "name": "previousAccount",
          "type": "address"
        },
        {
          "indexed": true,
          "name": "newAccount",
          "type": "address"
        }
      ],
      "name": "BeneficiaryChanged",
      "type": "event"
    },
    {
      "anonymous": false,
      "inputs": [
        {
          "indexed": false,
          "name": "account",
          "type": "address"
        }
      ],
      "name": "ReleaseRequested",
      "type": "event"
    },
    {
      "anonymous": false,
      "inputs": [
        {
          "indexed": true,
          "name": "previousOwner",
          "type": "address"
        },
        {
          "indexed": true,
          "name": "newOwner",
          "type": "address"
        }
      ],
      "name": "OwnershipTransferred",
      "type": "event"
    },
    {
      "anonymous": false,
      "inputs": [
        {
          "indexed": false,
          "name": "account",
          "type": "address"
        }
      ],
      "name": "Paused",
      "type": "event"
    },
    {
      "anonymous": false,
      "inputs": [
        {
          "indexed": false,
          "name": "account",
          "type": "address"
        }
      ],
      "name": "Unpaused",
      "type": "event"
    },
    {
      "constant": true,
      "inputs": [],
      "name": "token",
      "outputs": [
        {
          "name": "",
          "type": "address"
        }
      ],
      "payable": false,
      "stateMutability": "view",
      "type": "function"
    },
    {
      "constant": true,
      "inputs": [],
      "name": "beneficiary",
      "outputs": [
        {
          "name": "",
          "type": "address"
        }
      ],
      "payable": false,
      "stateMutability": "view",
      "type": "function"
    },
    {
      "constant": true,
      "inputs": [],
      "name": "releaseTime",
      "outputs": [
        {
          "name": "",
          "type": "uint256"
        }
      ],
      "payable": false,
      "stateMutability": "view",
      "type": "function"
    },
    {
      "constant": true,
      "inputs": [],
      "name": "releaseDelay",
      "outputs": [
        {
          "name": "",
          "type": "uint256"
        }
      ],
      "payable": false,
      "stateMutability": "view",
      "type": "function"
    },
    {
      "constant": true,
      "inputs": [],
      "name": "releaseRequested",
      "outputs": [
        {
          "name": "",
          "type": "bool"
        }
      ],
      "payable": false,
      "stateMutability": "view",
      "type": "function"
    },
    {
      "constant": true,
      "inputs": [],
      "name": "totalBurned",
      "outputs": [
        {
          "name": "",
          "type": "uint256"
        }
      ],
      "payable": false,
      "stateMutability": "view",
      "type": "function"
    },
    {
      "constant": true,
      "inputs": [],
      "name": "tokenBalance",
      "outputs": [
        {
          "name": "",
          "type": "uint256"
        }
      ],
      "payable": false,
      "stateMutability": "view",
      "type": "function"
    },
    {
      "constant": false,
      "inputs": [
        {
          "name": "newBeneficiary",
          "type": "address"
        }
      ],
      "name": "changeBeneficiary",
      "outputs": [],
      "payable": false,
      "stateMutability": "nonpayable",
      "type": "function"
    },
    {
      "constant": false,
      "inputs": [],
      "name": "release",
      "outputs": [],
      "payable": false,
      "stateMutability": "nonpayable",
      "type": "function"
    },
    {
      "constant": false,
      "inputs": [
        {
          "name": "burnAmount",
          "type": "uint256"
        }
      ],
      "name": "burn",
      "outputs": [],
      "payable": false,
      "stateMutability": "nonpayable",
      "type": "function"
    }
  ],
  "bytecode": "0x608060405234801561001057600080fd5b50604051608080610cb2833981016040818152825160208401519184015160609094015160008054600160a860020a03191633600160a060020a039081169190911780835593969495929316917f8be0079c531659141344cd1fd0a4f28419497f9722a3daafe3b4186f6b6457e0908290a342821161008e57600080fd5b620d2f0081101580156100a45750623b53808111155b15156100af57600080fd5b600160a060020a03831615156100c457600080fd5b60018054600160a060020a03958616600160a060020a0319918216179091556002805494909516931692909217909255908190036003556004556005805460ff19169055610b9b806101176000396000f3006080604052600436106100f05763ffffffff7c010000000000000000000000000000000000000000000000000000000060003504166338af3eed81146100f55780633f4ba83a1461012657806342966c681461013d5780635c975abb14610155578063623948ca1461017e578063715018a6146101935780637195bf23146101a85780638456cb59146101cf57806386d1a69f146101e45780638da5cb5b146101f95780638f32d59b1461020e5780639e1a4d1914610223578063b91d400114610238578063d89135cd1461024d578063dc07065714610262578063f2fde38b14610283578063fc0c546a146102a4575b600080fd5b34801561010157600080fd5b5061010a6102b9565b60408051600160a060020a039092168252519081900360200190f35b34801561013257600080fd5b5061013b6102c8565b005b34801561014957600080fd5b5061013b60043561034f565b34801561016157600080fd5b5061016a610581565b604080519115158252519081900360200190f35b34801561018a57600080fd5b5061016a610591565b34801561019f57600080fd5b5061013b61059a565b3480156101b457600080fd5b506101bd610604565b60408051918252519081900360200190f35b3480156101db57600080fd5b5061013b61060a565b3480156101f057600080fd5b5061013b610696565b34801561020557600080fd5b5061010a61086c565b34801561021a57600080fd5b5061016a61087b565b34801561022f57600080fd5b506101bd610890565b34801561024457600080fd5b506101bd61092c565b34801561025957600080fd5b506101bd610936565b34801561026e57600080fd5b5061013b600160a060020a036004351661093c565b34801561028f57600080fd5b5061013b600160a060020a03600435166109e5565b3480156102b057600080fd5b5061010a610a01565b600254600160a060020a031690565b6102d061087b565b15156102db57600080fd5b60005460a060020a900460ff1615156102f357600080fd5b6000805474ff00000000000000000000000000000000000000001916905560408051600160a060020a033316815290517f5db9ee0a495bf2e6ff9c91a7834c1ba4fdd244a5e8aa4e537bd38aeae4b073aa9181900360200190a1565b60008061035a61087b565b151561036557600080fd5b60005460a060020a900460ff161561037c57600080fd5b6000831161038957600080fd5b600154604080517f70a08231000000000000000000000000000000000000000000000000000000008152600160a060020a033081166004830152915191909216916370a082319160248083019260209291908290030181600087803b1580156103f157600080fd5b505af1158015610405573d6000803e3d6000fd5b505050506040513d602081101561041b57600080fd5b505191508282101561042c57600080fd5b610434610aa6565b604051809103906000f080158015610450573d6000803e3d6000fd5b50600154604080517fa9059cbb000000000000000000000000000000000000000000000000000000008152600160a060020a03808516600483015260248201889052915193945091169163a9059cbb916044808201926020929091908290030181600087803b1580156104c257600080fd5b505af11580156104d6573d6000803e3d6000fd5b505050506040513d60208110156104ec57600080fd5b50511561057c57600654610506908463ffffffff610a1016565b60068190555080600160a060020a03166344df8e706040518163ffffffff167c0100000000000000000000000000000000000000000000000000000000028152600401600060405180830381600087803b15801561056357600080fd5b505af1158015610577573d6000803e3d6000fd5b505050505b505050565b60005460a060020a900460ff1690565b60055460ff1690565b6105a261087b565b15156105ad57600080fd5b60008054604051600160a060020a03909116907f8be0079c531659141344cd1fd0a4f28419497f9722a3daafe3b4186f6b6457e0908390a36000805473ffffffffffffffffffffffffffffffffffffffff19169055565b60045490565b61061261087b565b151561061d57600080fd5b60005460a060020a900460ff161561063457600080fd5b6000805474ff0000000000000000000000000000000000000000191660a060020a17905560408051600160a060020a033316815290517f62e78cea01bee320cd4e420270b5ea74000d11b0c9f74754ebdbfc544b05a2589181900360200190a1565b6000805460a060020a900460ff16156106ae57600080fd5b6003544210156106bd57600080fd5b60055460ff161515610717576005805460ff1916600117905560408051600160a060020a033316815290517fe70bd4ef9c3b7892801256537d3b5e7bb4da6a9ff50fc387e1b4c84bd400c1ac9181900360200190a1610869565b6004546003540142101561072a57600080fd5b600154604080517f70a08231000000000000000000000000000000000000000000000000000000008152600160a060020a033081166004830152915191909216916370a082319160248083019260209291908290030181600087803b15801561079257600080fd5b505af11580156107a6573d6000803e3d6000fd5b505050506040513d60208110156107bc57600080fd5b50519050600081116107cd57600080fd5b600154600254604080517fa9059cbb000000000000000000000000000000000000000000000000000000008152600160a060020a039283166004820152602481018590529051919092169163a9059cbb9160448083019260209291908290030181600087803b15801561083f57600080fd5b505af1158015610853573d6000803e3d6000fd5b505050506040513d602081101561057c57600080fd5b50565b600054600160a060020a031690565b60005433600160a060020a0390811691161490565b600154604080517f70a08231000000000000000000000000000000000000000000000000000000008152600160a060020a033081166004830152915160009392909216916370a082319160248082019260209290919082900301818787803b1580156108fb57600080fd5b505af115801561090f573d6000803e3d6000fd5b505050506040513d602081101561092557600080fd5b5051905090565b6004546003540190565b60065490565b61094461087b565b151561094f57600080fd5b60005460a060020a900460ff16151561096757600080fd5b600160a060020a038116151561097c57600080fd5b600254604051600160a060020a038084169216907f768099735d1c322a05a5b9d7b76d99682a1833d3f7055e5ede25e0f2eeaa8c6d90600090a36002805473ffffffffffffffffffffffffffffffffffffffff1916600160a060020a0392909216919091179055565b6109ed61087b565b15156109f857600080fd5b61086981610a29565b600154600160a060020a031690565b600082820183811015610a2257600080fd5b9392505050565b600160a060020a0381161515610a3e57600080fd5b60008054604051600160a060020a03808516939216917f8be0079c531659141344cd1fd0a4f28419497f9722a3daafe3b4186f6b6457e091a36000805473ffffffffffffffffffffffffffffffffffffffff1916600160a060020a0392909216919091179055565b60405160ba80610ab68339019056006080604052348015600f57600080fd5b50609c8061001e6000396000f300608060405260043610603e5763ffffffff7c010000000000000000000000000000000000000000000000000000000060003504166344df8e7081146043575b600080fd5b348015604e57600080fd5b5060556057565b005b3073ffffffffffffffffffffffffffffffffffffffff16ff00a165627a7a72305820d12bf451d4491ec4a1935ae0c61a8f35e2e34e1918c9d321601cb1454878e2060029a165627a7a723058206b69c7ff444f4fcd38f81395f2289a4d446baec2650cd10a84c3d7a775e34cca0029",
  "source": "pragma solidity 0.4.23;\r\n\r\nlibrary SafeMath {\r\n    function mul(uint256 _a, uint256 _b) internal pure returns (uint256) {\r\n        if (_a == 0) {\r\n            return 0;\r\n        }\r\n        uint256 c = _a * _b;\r\n        require(c / _a == _b);\r\n\r\n        return c;\r\n    }\r\n\r\n    function div(uint256 _a, uint256 _b) internal pure returns (uint256) {\r\n        require(_b > 0);\r\n        uint256 c = _a / _b;\r\n\r\n        return c;\r\n    }\r\n\r\n    function sub(uint256 _a, uint256 _b) internal pure returns (uint256) {\r\n        require(_b <= _a);\r\n        uint256 c = _a - _b;\r\n\r\n        return c;\r\n    }\r\n\r\n    function add(uint256 _a, uint256 _b) internal pure returns (uint256) {\r\n        uint256 c = _a + _b;\r\n        require(c >= _a);\r\n\r\n        return c;\r\n    }\r\n}\r\n\r\ncontract ERC20 {\r\n    function totalSupply() public view returns (uint256);\r\n\r\n    function balanceOf(address _who) public view returns (uint256);\r\n\r\n    function allowance(address _owner, address _spender)\r\n        public view returns (uint256);\r\n\r\n    function transfer(address _to, uint256 _value) public returns (bool);\r\n\r\n    function approve(address _spender, uint256 _value)\r\n        public returns (bool);\r\n\r\n    function transferFrom(address _from, address _to, uint256 _value)\r\n        public returns (bool);\r\n\r\n    event Transfer(\r\n        address indexed from,\r\n        address indexed to,\r\n        uint256 value\r\n    );\r\n\r\n    event Approval(\r\n        address indexed owner,\r\n        address indexed spender,\r\n        uint256 value\r\n    );\r\n}\r\n\r\ncontract Ownable {\r\n    address private _owner;\r\n    bool private _paused;\r\n\r\n    event OwnershipTransferred(address indexed previousOwner, address indexed newOwner);\r\n    event Paused(address account);\r\n    event Unpaused(address account);\r\n\r\n    constructor () internal {\r\n        _paused = false;\r\n        _owner = msg.sender;\r\n        emit OwnershipTransferred(address(0), _owner);\r\n    }\r\n\r\n    function owner() public view returns (address) {\r\n        return _owner;\r\n    }\r\n\r\n    function paused() public view returns (bool) {\r\n        return _paused;\r\n    }\r\n\r\n    modifier onlyOwner() {\r\n        require(isOwner());\r\n        _;\r\n    }\r\n\r\n    modifier whenNotPaused() {\r\n        require(!_paused);\r\n        _;\r\n    }\r\n\r\n    modifier whenPaused() {\r\n        require(_paused);\r\n        _;\r\n    }\r\n\r\n    function isOwner() public view returns (bool) {\r\n        return msg.sender == _owner;\r\n    }\r\n\r\n    function renounceOwnership() public onlyOwner {\r\n        emit OwnershipTransferred(_owner, address(0));\r\n        _owner = address(0);\r\n    }\r\n\r\n    function transferOwnership(address newOwner) public onlyOwner {\r\n        _transferOwnership(newOwner);\r\n    }\r\n\r\n    function pause() public onlyOwner whenNotPaused {\r\n        _paused = true;\r\n        emit Paused(msg.sender);\r\n    }\r\n\r\n    function unpause() public onlyOwner whenPaused {\r\n        _paused = false;\r\n        emit Unpaused(msg.sender);\r\n    }\r\n\r\n    function _transferOwnership(address newOwner) internal {\r\n        require(newOwner != address(0));\r\n        emit OwnershipTransferred(_owner, newOwner);\r\n        _owner = newOwner;\r\n    }\r\n}\r\n\r\ncontract TokenBurner {\r\n    function burn() public {\r\n        selfdestruct(address(this));\r\n    }\r\n}\r\n\r\n/**\r\n * @title BurnableTimelock\r\n * @dev BurnableTimelock is a token holder contract that will allow a\r\n * beneficiary to extract the tokens after a given release time.\r\n *\r\n */\r\ncontract BurnableTimelock is Ownable {\r\n    using SafeMath for uint256;\r\n\r\n    ERC20 private _token;\r\n\r\n    address private _beneficiary;\r\n\r\n    uint256 private _requestTime;\r\n\r\n    uint256 private _releaseDelay;\r\n\r\n    bool private _releaseRequested;\r\n\r\n    uint256 private _totalBurned;\r\n\r\n    event BeneficiaryChanged(address indexed previousAccount, address indexed newAccount);\r\n    event ReleaseRequested(address account);\r\n\r\n    constructor (address token, address beneficiary, uint256 releaseTime, uint256 releaseDelay) public {\r\n        require(releaseTime > block.timestamp);\r\n        require(releaseDelay >= 864000 && releaseDelay <= 3888000); // Min = 10 days, Max = 45 days\r\n        require(beneficiary != address(0));\r\n        _token = ERC20(token);\r\n        _beneficiary = beneficiary;\r\n        _requestTime = releaseTime - releaseDelay;\r\n        _releaseDelay = releaseDelay;\r\n        _releaseRequested = false;\r\n    }\r\n\r\n    function token() public view returns (ERC20) {\r\n        return _token;\r\n    }\r\n\r\n    function beneficiary() public view returns (address) {\r\n        return _beneficiary;\r\n    }\r\n\r\n    function releaseTime() public view returns (uint256) {\r\n        return _requestTime + _releaseDelay;\r\n    }\r\n\r\n    function releaseDelay() public view returns (uint256) {\r\n        return _releaseDelay;\r\n    }\r\n\r\n    function releaseRequested() public view returns (bool) {\r\n        return _releaseRequested;\r\n    }\r\n\r\n    function totalBurned() public view returns (uint256) {\r\n        return _totalBurned;\r\n    }\r\n\r\n    function tokenBalance() public view returns (uint256) {\r\n        return _token.balanceOf(address(this));\r\n    }\r\n\r\n    function changeBeneficiary(address newBeneficiary) public onlyOwner whenPaused {\r\n        require(newBeneficiary != address(0));\r\n        emit BeneficiaryChanged(_beneficiary, newBeneficiary);\r\n        _beneficiary = newBeneficiary;\r\n    }\r\n\r\n    function release() public whenNotPaused {\r\n        require(block.timestamp >= _requestTime);\r\n\r\n        if (!_releaseRequested) {\r\n            _releaseRequested = true;\r\n            emit ReleaseRequested(msg.sender);\r\n        } else {\r\n            require(block.timestamp >= (_requestTime + _releaseDelay));\r\n\r\n            uint256 amount = _token.balanceOf(address(this));\r\n            require(amount > 0);\r\n            _token.transfer(_beneficiary, amount);\r\n        }\r\n    }\r\n\r\n    function burn(uint256 burnAmount) public onlyOwner whenNotPaused {\r\n        require(burnAmount > 0);\r\n\r\n        uint256 amount = _token.balanceOf(address(this));\r\n        require(amount >= burnAmount);\r\n\r\n        TokenBurner burner = new TokenBurner();\r\n        if (_token.transfer(address(burner), burnAmount)) {\r\n            _totalBurned = _totalBurned.add(burnAmount);\r\n            burner.burn();\r\n        }\r\n    }\r\n}\r\n",
  "sourcePath": "Q:/TrueDeck/TrueDeckTokenLocking/contracts/BurnableTimelock.sol",
  "compiler": {
    "name": "solc",
    "version": "0.4.23+commit.124ca40d.Emscripten.clang"
  },
  "schemaVersion": "2.0.0",
  "updatedAt": "2019-05-19T06:14:21.189Z"
}